:100000000C9483000C94B4000C94B4000C94B400D1
:100010000C94B4000C94B4000C94B4000C94B40090
:100020000C94B4000C94B4000C94B4000C94B40080
:100030000C94B4000C94B4000C94B4000C94B40070
:100040000C94B4000C94B4000C94B4000C94B40060
:100050000C94B4000C94B4000C94B4000C94E6011D
:100060000C94B4000C9458020C942E020C94B4001E
:100070000C94B4000C94B4000C94B4000C94B40030
:100080000C94B4000C94B4000C94B4000C94B40020
:100090000C94B4000C94B4000C94B4000C94B40010
:1000A0000C94B4000C94B4000C94B4000C94B40000
:1000B0000C94B4000C94B4000C94B4000C94B400F0
:1000C0000C94B4000C94B4000C94B4000C94B400E0
:1000D0000C94B4000C94B4000C94B4000C94B400D0
:1000E0000C94B4000C9441030C94B6000C940201DF
:1000F0000C9410010C94DF000C9448010C94EE0059
:100100000C949501410311241FBECFEFD1E2DEBF55
:10011000CDBF00E00CBF12E0A0E0B2E0E6EFF6E0F9
:1001200000E00BBF02C007900D92AE31B107D9F7C6
:1001300022E0AEE1B2E001C01D92A43CB207E1F7BB
:1001400010E0C3E8D0E000E006C021970109802F4D
:10015000FE010E947103C238D10780E00807A9F7A9
:100160000E9489020C946E030C940000CF92DF92DF
:10017000EF92FF920F931F93CF93DF937C016A015D
:1001800010E000E00C151D0581F0EB01D701ED91A9
:10019000FC910190F081E02D6991C7011995892B9F
:1001A00021F00F5F1F4FBE01EDCFC801DF91CF914E
:1001B0001F910F91FF90EF90DF90CF900895FC0179
:1001C000538D448D252F30E0842F90E0821B930BBC
:1001D000541710F0CF96089501970895FC01918D62
:1001E000828D981761F0A28DAE0FBF2FB11D5D9665
:1001F0008C91928D9F5F9F73928F90E008958FEF07
:100200009FEF0895FC01918D828D981731F0828DBA
:10021000E80FF11D858D90E008958FEF9FEF089511
:10022000FC01918D228D892F90E0805C9F4F821B75
:1002300091098F73992708958EE192E00E94100131
:1002400021E0892B09F420E0822F0895FC01A48D80
:10025000A80FB92FB11DA35ABF4F2C91848D90E0E8
:1002600001968F739927848FA689B7892C93A089CB
:10027000B1898C91837080648C93938D848D981355
:1002800006C00288F389E02D80818F7D80830895E8
:10029000EF92FF920F931F93CF93DF93EC01F62E13
:1002A00081E0888F9B8D8C8D98131AC0E889F9891D
:1002B000808185FF15C09FB7F894EE89FF89608320
:1002C000E889F98980818370806480839FBF81E0A1
:1002D00090E0DF91CF911F910F91FF90EF900895E3
:1002E0000B8D10E00F5F1F4F0F731127E02E8C8DC9
:1002F0008E110CC00FB607FCFACFE889F98980810E
:1003000085FFF5CFCE010E942601F1CFEB8DEC0FDA
:10031000FD2FF11DE35AFF4FF0829FB7F8940B8F2A
:10032000EA89FB8980818062D0CFCF93DF93EC0193
:10033000888D8823B9F0AA89BB89E889F9898C91CD
:1003400085FD03C0808186FD0DC00FB607FCF7CF89
:100350008C9185FFF2CF808185FFEDCFCE010E9489
:100360002601E9CFDF91CF91089580E090E0892BBD
:1003700029F00E941C0181110E94000080E090E0A1
:10038000892B49F080E090E0892B29F00E94000041
:1003900081110E94000080E090E0892B49F080E00C
:1003A00090E0892B29F00E94000081110E9400003A
:1003B00080E090E0892B49F080E090E0892B29F0E3
:1003C0000E94000081110C94000008951F921FB636
:1003D0001F9211242F933F938F939F93AF93BF93BB
:1003E0008091C0029091C102A091C202B091C3025B
:1003F0003091BF0223E0230F2D3750F50196A11D48
:10040000B11D2093BF028093C0029093C102A093BC
:10041000C202B093C3028091BB029091BC02A09132
:10042000BD02B091BE020196A11DB11D8093BB0219
:100430009093BC02A093BD02B093BE02BF91AF9156
:100440009F918F913F912F911F901FBE1F901895E4
:1004500026E8230F0296A11DB11DD3CF1F920F9244
:100460000FB60F9211240BB60F922F933F934F9319
:100470005F936F937F938F939F93AF93BF93EF930C
:10048000FF938EE192E00E942601FF91EF91BF91D0
:10049000AF919F918F917F916F915F914F913F911C
:1004A0002F910F900BBE0F900FBE0F901F901895BD
:1004B0002F932FB72F932BB72F938F939F93EF9358
:1004C000FF93E0912E02F0912F028081E09134029F
:1004D000F091350282FD1BC09081809137028F5FC1
:1004E0008F7320913802821741F0E0913702F0E0DB
:1004F000E25EFD4F958F80933702FF91EF919F91C0
:100500008F912F912BBF2F912FBF2F911895808105
:10051000F4CF789484B5826084BD84B5816084BD55
:1005200085B5826085BD85B5816085BD80916E0091
:10053000816080936E0010928100809181008260C2
:1005400080938100809181008160809381008091FF
:1005500080008160809380008091B10084608093EE
:10056000B1008091B00081608093B00080919100D3
:1005700082608093910080919100816080939100CE
:10058000809190008160809390008091A1008260B2
:100590008093A1008091A10081608093A10080914F
:1005A000A00081608093A0008091210182608093EF
:1005B000210180912101816080932101809120019E
:1005C00081608093200180917A00846080937A001A
:1005D00080917A00826080937A0080917A008160B5
:1005E00080937A0080917A00806880937A001092DC
:1005F000C100E0912E02F0912F0282E08083E09111
:100600002A02F0912B021082E0912C02F0912D022F
:100610008FEC808310923602E0913202F091330227
:1006200086E08083E0913002F09131028081806128
:100630008083E0913002F091310280818860808374
:10064000E0913002F0913102808180688083E091F6
:100650003002F091310280818F7D808347E050E04D
:1006600062E172E08EE192E00E94B60042E050E06A
:100670006AE172E08EE192E00E94B6000E94B5014C
:10068000FDCFEEE1F2E01382128288EE93E0A0E06B
:10069000B0E084839583A683B78384E092E091835E
:1006A000808385EC90E09587848784EC90E0978741
:1006B000868780EC90E0918B808B81EC90E0938B2F
:1006C000828B82EC90E0958B848B86EC90E0978B0C
:1006D000868B118E128E138E148E0895F8940C94BE
:1006E0007903EE0FFF1F881F8BBF0790F691E02D57
:0606F0001994F894FFCFFD
:1006F600000000004801B600DF0095011001EE0081
:0E07060002014C45545320474F000D0A0000DD
:00000001FF
