:100000000C9439010C94A9050C947E050C945305AD
:100010000C9428050C94FD040C94D2040C94A704B1
:100020000C947C040C946A010C946A010C946A018F
:100030000C946A010C946A010C946A010C946A0194
:100040000C946A010C946A010C946A010C946A0184
:100050000C946A010C946A010C946A010C94D90303
:100060000C946A010C944B040C9421040C946A01C6
:100070000C946A010C946A010C946A010C946A0154
:100080000C946A010C946A010C946A010C946A0144
:100090000C946A010C946A010C946A010C946A0134
:1000A0000C946A010C946A010C946A010C946A0124
:1000B0000C946A010C946A010C946A010C946A0114
:1000C0000C946A010C946A010C946A010C946A0104
:1000D0000C946A010C946A010C946A010C946A01F4
:1000E0000C946A010C9406030C94E7020C947302BE
:1000F0000C94FF020C9428030C9410030C94BD0183
:100100000C941A030C9424030C940C030C94A00676
:100110000C9426020C9436030C94F7020C94940170
:100120000C94CC010C941E030C94EE010C94160359
:100130000C9403030C94FB020C94E2020C94500305
:100140000C9432030C943D030C942C030C94E001AA
:10015000000020002300260029002C002F00320080
:100160000001000003010601090100000A0B020959
:100170000C0D0E0807030401000000000000000041
:10018000000000000000000000000000000000006F
:10019000000000000000121110000000000000002C
:1001A000000000000000000000000000000000004F
:1001B00000002200250028002B002E003100340012
:1001C00002010000050108010B01000021002400CC
:1001D00027002A002D003000330001010000040137
:1001E00007010A01050505050705080808080202B8
:1001F00002020A0A080804040404010101010101C1
:1002000001010303030303030303040707070C0CA3
:100210000C0C0C0C0C0C020202020606060606066A
:1002200006060B0B0B0B0B0B0B0B0102102020080F
:100230000810204010204080020102010804020141
:1002400001020408102040808040201008040201B0
:100250008004020180402010080402010804020109
:100260000102040810204080010204081020408090
:10027000A00611241FBECFEFD1E2DEBFCDBF00E04C
:100280000CBF12E0A0E0B2E0E6E6F3E100E00BBF55
:1002900002C007900D92A435B107D9F722E0A4E57A
:1002A000B2E001C01D92AA3FB207E1F711E0C9E335
:1002B000D1E000E006C021970109802FFE010E94D5
:1002C0009709C833D10780E00807A9F70E94D40531
:1002D0000C94CD060C940000CF93DF9390E0FC01CA
:1002E000E65DFD4F24918C519E4FFC018491882343
:1002F000C1F090E0880F991FFC01E653FE4FC591B5
:10030000D491FC01E055FE4FA591B4919FB7F894AC
:100310008881E22FE0958E2388838C91E823EC93EB
:100320009FBFDF91CF910895CF92DF92EF92FF921E
:100330000F931F93CF93DF937C016A0110E000E0DD
:100340000C151D0581F0EB01D701ED91FC91019099
:10035000F081E02D6991C7011995892B21F00F5F7C
:100360001F4FBE01EDCFC801DF91CF911F910F91BB
:10037000FF90EF90DF90CF900895FC01538D448D56
:10038000252F30E0842F90E0821B930B541710F040
:10039000CF96089501970895FC01918D828D98174D
:1003A00061F0A28DAE0FBF2FB11D5D968C91928D25
:1003B0009F5F9F73928F90E008958FEF9FEF089556
:1003C000FC01918D828D981731F0828DE80FF11D1F
:1003D000858D90E008958FEF9FEF0895FC01918D3A
:1003E000228D892F90E0805C9F4F821B91098F7333
:1003F000992708958DE592E00E94EE0121E0892B76
:1004000009F420E0822F0895FC01A48DA80FB92FD4
:10041000B11DA35ABF4F2C91848D90E001968F732C
:100420009927848FA689B7892C93A089B1898C914B
:10043000837080648C93938D848D981306C002889A
:10044000F389E02D80818F7D80830895EF92FF9264
:100450000F931F93CF93DF93EC01F62E81E0888FEB
:100460009B8D8C8D98131AC0E889F989808185FF4E
:1004700015C09FB7F894EE89FF896083E889F989F0
:1004800080818370806480839FBF81E090E0DF91F2
:10049000CF911F910F91FF90EF9008950B8D10E079
:1004A0000F5F1F4F0F731127E02E8C8D8E110CC024
:1004B0000FB607FCFACFE889F989808185FFF5CF6F
:1004C000CE010E940402F1CFEB8DEC0FFD2FF11D48
:1004D000E35AFF4FF0829FB7F8940B8FEA89FB89AC
:1004E00080818062D0CFCF93DF93EC01888D882309
:1004F000B9F0AA89BB89E889F9898C9185FD03C087
:10050000808186FD0DC00FB607FCF7CF8C9185FF6B
:10051000F2CF808185FFEDCFCE010E940402E9CFAA
:10052000DF91CF91089580E090E0892B29F00E941F
:10053000FA0181110E94000080E090E0892B49F0CF
:1005400080E090E0892B29F00E94000081110E9438
:10055000000080E090E0892B49F080E090E0892B5A
:1005600029F00E94000081110E94000080E090E0CC
:10057000892B49F080E090E0892B29F00E9400004F
:1005800081110C9400000895282F30E0F901E659FC
:10059000FE4F9491F901E65DFD4F44912C513E4F81
:1005A000F9012491222309F465C0992381F0915027
:1005B000923168F4E92FF0E08827EF55F64F8F4F1E
:1005C0000C949709809180008F7780938000E22FB0
:1005D000F0E0EE0FFF1FE05BFE4FA591B491EC91B0
:1005E000E42381E090E009F047C080E00895809125
:1005F00080008F7DEACF80918000877FE6CF84B531
:100600008F7784BDE4CF84B58F7DFBCF8091B00020
:100610008F778093B000DBCF8091B0008F7DF9CFD2
:10062000809190008F7780939000D1CF809190003F
:100630008F7DF9CF80919000877FF5CF8091A000CA
:100640008F778093A000C3CF8091A0008F7DF9CFDA
:100650008091A000877FF5CF809120018F778093D4
:100660002001B5CF809120018F7DF9CF80912001AD
:10067000877FF5CF80E090E008950895009769F0B6
:10068000FC0101900020E9F73197AF01481B590B9D
:10069000BC018DE592E00C94940190E080E0089517
:1006A000AF92BF92CF92DF92EF92FF920F931F9380
:1006B000CF93DF93CDB7DEB7A1970FB6F894DEBF27
:1006C0000FBECDBF6AE2E62E62E0F62E10E000E03B
:1006D000F70181917F010E94C402DD24D394892B0C
:1006E00009F4D12C19A280E38D0D88A3CE01809648
:1006F0000E943E03000F111F0D0D111DFAE3EF16AE
:10070000F2E0FF0629F78AE392E00E943E0332E21C
:10071000C32E32E0D32E4AE2A42E42E0B42EF12CB6
:10072000E12CF60181916F010E94C402EE0CFF1CC6
:1007300021E030E0892B11F430E020E0E20EF31EDE
:10074000AC14BD0471F783E00E94C402892B79F5D3
:1007500087E5FF92EF921F928F931F930F938FE382
:1007600092E09F938F938E010F5F1F4F1F930F9304
:100770000E94D006C8010E943E0380E592E00E94DC
:100780003E030FB6F894DEBF0FBECDBFA1960FB6E5
:10079000F894DEBF0FBECDBFDF91CF911F910F91B7
:1007A000FF90EF90DF90CF90BF90AF90089582E7D9
:1007B000D0CF1F921FB61F9211242F933F938F9378
:1007C0009F93AF93BF938091590290915A02A09149
:1007D0005B02B0915C023091580223E0230F2D3769
:1007E00050F50196A11DB11D209358028093590226
:1007F00090935A02A0935B02B0935C0280915402E2
:1008000090915502A0915602B09157020196A11DF8
:10081000B11D8093540290935502A0935602B09359
:100820005702BF91AF919F918F913F912F911F9050
:100830001FBE1F90189526E8230F0296A11DB11D1B
:10084000D3CF1F920F920FB60F9211240BB60F92B7
:100850002F933F934F935F936F937F938F939F93C8
:10086000AF93BF93EF93FF938DE592E00E94040254
:10087000FF91EF91BF91AF919F918F917F916F9178
:100880005F914F913F912F910F900BBE0F900FBE34
:100890000F901F9018952F932FB72F932BB72F934F
:1008A0008F939F93EF93FF93E0916D02F0916E020F
:1008B0008081E0917302F091740282FD1BC09081EF
:1008C000809176028F5F8F7320917702821741F0BB
:1008D000E0917602F0E0E35AFD4F958F8093760227
:1008E000FF91EF919F918F912F912BBF2F912FBF50
:1008F0002F9118958081F4CF1F920F920FB60F920F
:1009000011240BB60F922F933F934F935F936F93E6
:100910007F938F939F93AF93BF93EF93FF93E09158
:100920000E02F0910F021995FF91EF91BF91AF91D7
:100930009F918F917F916F915F914F913F912F91F7
:100940000F900BBE0F900FBE0F901F9018951F9227
:100950000F920FB60F9211240BB60F922F933F9365
:100960004F935F936F937F938F939F93AF93BF93B7
:10097000EF93FF93E0910C02F0910D021995FF9116
:10098000EF91BF91AF919F918F917F916F915F9107
:100990004F913F912F910F900BBE0F900FBE0F9074
:1009A0001F9018951F920F920FB60F9211240BB63D
:1009B0000F922F933F934F935F936F937F938F93F8
:1009C0009F93AF93BF93EF93FF93E0910202F09157
:1009D00003021995FF91EF91BF91AF919F918F9174
:1009E0007F916F915F914F913F912F910F900BBE2F
:1009F0000F900FBE0F901F9018951F920F920FB679
:100A00000F9211240BB60F922F933F934F935F9346
:100A10006F937F938F939F93AF93BF93EF93FF93C6
:100A2000E0910002F09101021995FF91EF91BF91C1
:100A3000AF919F918F917F916F915F914F913F9176
:100A40002F910F900BBE0F900FBE0F901F90189517
:100A50001F920F920FB60F9211240BB60F922F9385
:100A60003F934F935F936F937F938F939F93AF9336
:100A7000BF93EF93FF93E0910A02F0910B02199557
:100A8000FF91EF91BF91AF919F918F917F916F9166
:100A90005F914F913F912F910F900BBE0F900FBE22
:100AA0000F901F9018951F920F920FB60F9211245E
:100AB0000BB60F922F933F934F935F936F937F9358
:100AC0008F939F93AF93BF93EF93FF93E0910802AF
:100AD000F09109021995FF91EF91BF91AF919F910C
:100AE0008F917F916F915F914F913F912F910F90D7
:100AF0000BBE0F900FBE0F901F9018951F920F9274
:100B00000FB60F9211240BB60F922F933F934F9372
:100B10005F936F937F938F939F93AF93BF93EF9365
:100B2000FF93E0910602F09107021995FF91EF9172
:100B3000BF91AF919F918F917F916F915F914F91F5
:100B40003F912F910F900BBE0F900FBE0F901F90F3
:100B500018951F920F920FB60F9211240BB60F9299
:100B60002F933F934F935F936F937F938F939F93B5
:100B7000AF93BF93EF93FF93E0910402F0910502CE
:100B80001995FF91EF91BF91AF919F918F917F91B7
:100B90006F915F914F913F912F910F900BBE0F90EE
:100BA0000FBE0F901F901895789484B5826084BD15
:100BB00084B5816084BD85B5826085BD85B5816061
:100BC00085BD80916E00816080936E0010928100DF
:100BD000809181008260809381008091810081609A
:100BE000809381008091800081608093800080915B
:100BF000B10084608093B1008091B00081608093E7
:100C0000B00080919100826080939100809191006A
:100C1000816080939100809190008160809390002A
:100C20008091A10082608093A1008091A1008160E9
:100C30008093A1008091A00081608093A0008091AA
:100C40002101826080932101809121018160809344
:100C500021018091200181608093200180917A00A0
:100C6000846080937A0080917A00826080937A0019
:100C700080917A00816080937A0080917A00806808
:100C800080937A001092C100CAE2D2E089910E945A
:100C90006C0182E0CA33D807C9F7C2E2D2E0899179
:100CA0000E946C0182E0CA32D807C9F782E00E9434
:100CB0006C0183E00E946C0180E593E09093010257
:100CC0008093000280916A00836080936A00EC9AAE
:100CD000E0916D02F0916E0282E08083E091690202
:100CE000F0916A021082E0916B02F0916C028FEC3D
:100CF000808310927502E0917102F091720286E099
:100D00008083E0916F02F091700280818061808326
:100D1000E0916F02F0917002808188608083E091A1
:100D20006F02F0917002808180688083E0916F0291
:100D3000F091700280818F7D80830E949302FDCFAD
:100D4000EDE5F2E01382128288EE93E0A0E0B0E0DD
:100D500084839583A683B78384E192E09183808323
:100D600085EC90E09587848784EC90E09787868770
:100D700080EC90E0918B808B81EC90E0938B828B68
:100D800082EC90E0958B848B86EC90E0978B868B41
:100D9000118E128E138E148E0895F8940C949F0960
:100DA0000F931F93CF93DF93CDB7DEB72E970FB678
:100DB000F894DEBF0FBECDBF0E891F8986E08C83FD
:100DC0001A8309838FEF9FE79E838D83AE01465E72
:100DD0005F4F688D798DCE0101960E9400072F81AB
:100DE0003885020F131FF80110822E960FB6F89463
:100DF000DEBF0FBECDBFDF91CF911F910F91089540
:100E00002F923F924F925F926F927F928F929F921A
:100E1000AF92BF92CF92DF92EF92FF920F931F9308
:100E2000CF93DF9300D000D000D00F920F92CDB7B8
:100E3000DEB77C013B018A01FC01178216828381A7
:100E400081FFCEC19AE0292ECE0101965C01F70107
:100E50009381F30193FD859193FF81913F01882355
:100E600009F446C1853239F493FD859193FF819150
:100E70003F01853229F4B70190E00E940909E7CFCC
:100E8000912C412C512CFFE1F51538F08B3209F1F2
:100E900088F4803201F1833221F157FC3AC020ED11
:100EA000280F2A3040F556FE1FC0929C200D1124B9
:100EB000922E06C08D3291F0803379F7689450F805
:100EC000F30193FD859193FF81913F018111DBCF68
:100ED00020C0689451F8689452F8F2CF689453F89F
:100EE000EFCF689454F8ECCF429C200D1124422E91
:100EF000689455F8E5CF8E3229F456FCF9C0689411
:100F000056F8DECF8C3619F4689457F8D9CF883666
:100F1000B9F2982F9F7D95549330C0F08336A1F19C
:100F20008337C1F1833509F05BC0F801C190D190DE
:100F30008F01692D70E056FC02C06FEF7FEFC60194
:100F40000E94F3084C01689457F80AC00C5F1F4FC9
:100F50002FE3298388248394912C6501E89457F822
:100F600053FC04C04814190409F018F5342C8114FA
:100F7000910431F5332009F46ACFB70180E290E0A3
:100F80000E9409093A94F6CFF801808189830E5FA7
:100F90001F4FE0CFF801C190D1908F01692D70E013
:100FA00056FC02C06FEF7FEFC6010E94FE084C01A5
:100FB000D5CFB70180E290E00E9409094A94D2CFD0
:100FC000F60157FC859157FE81916F01B70190E0C2
:100FD0000E94090931103A94F1E08F1A9108C7CFA5
:100FE000843619F0893609F074C0F80157FE6AC0DA
:100FF00061917191819191918F01252D2F76D22E42
:1010000097FF09C090958095709561957F4F8F4FA0
:101010009F4F6894D7F82AE030E0A5010E94390973
:10102000C82ECA188C2C5D2CD6FE0CC0E89450F843
:10103000C91440F4D4FE05C0D2FC03C0FD2DFE7ED1
:101040005F2E892C54FEA4C0FE01EC0DF11D8081A1
:10105000803309F096C0252D297E522E852D88706B
:10106000382E53FCA4C050FE9EC09C2C841418F44F
:101070004C0C942C981854FEA0C0B70180E390E06B
:101080000E94090952FE09C088E790E051FE02C0A3
:1010900088E590E0B7010E940909C91408F499C0D5
:1010A000CA94D12C9FEFC91AD90ACA0CDB1CF601CD
:1010B00082916F01B70190E00E940909AC14BD0450
:1010C000B1F758CF61917191072E000C880B990BE5
:1010D00093CFD52CE894D4F82AE030E08537E1F1BD
:1010E000952D997FD92E8F36A9F1F0F4883551F1DD
:1010F000F701868197812B960FB6F894DEBF0FBE5D
:10110000CDBFDF91CF911F910F91FF90EF90DF90B6
:10111000CF90BF90AF909F908F907F906F905F9097
:101120004F903F902F900895803749F0883701F70E
:10113000D4FE02C06894D2F820E130E00DC068947B
:10114000D4F8F6CF54FE03C0E92FE660DE2E20E18E
:1011500032E002C028E030E0F801D7FE0DC0619116
:101160007191819191918F01A5010E943909C82E39
:10117000CA18E894D7F856CF6191719190E080E059
:10118000F2CF52FC02C0839469CF8394839466CFDC
:10119000852D867809F462CFF6CFB70180E290E022
:1011A0000E94090983948414C0F3312C64CF342C39
:1011B0003818841408F45FCFF8CF852D867809F4A9
:1011C0006CCF8BE251FE80E257FC8DE2B70190E0DC
:1011D00062CFB70180E390E00E9409099A945DCF45
:1011E0008FEF9FEF88CFFC01059061507040011098
:1011F000D8F7809590958E0F9F1F0895FC01615040
:10120000704001900110D8F7809590958E0F9F1F28
:1012100008950F931F93CF93DF93182F092FEB019E
:101220008B8181FD09C01FEF0FEF812F902FDF9180
:10123000CF911F910F91089582FF14C02E813F819D
:101240008C819D81281739073CF4E881F981CF0111
:1012500001969983888310838E819F8101969F8355
:101260008E83E3CFE885F985812F1995892BA1F32A
:10127000DACFFA01AA27283051F1203181F1E89420
:101280006F936E7F6E5F7F4F8F4F9F4FAF4FB1E079
:101290003ED0B4E03CD0670F781F891F9A1FA11D74
:1012A000680F791F8A1F911DA11D6A0F711D811D75
:1012B000911DA11D20D009F468943F912AE0269F3A
:1012C00011243019305D3193DEF6CF010895462F99
:1012D0004770405D4193B3E00FD0C9F7F6CF462F7A
:1012E0004F70405D4A3318F0495D31FD40524193E3
:1012F00002D0A9F7EACFB4E0A695979587957795A0
:101300006795BA95C9F700976105710508959B0126
:10131000AC010A2E06945795479537952795BA95AF
:10132000C9F7620F731F841F951FA01D0895EE0F4C
:10133000FF1F881F8BBF0790F691E02D1994F8943A
:10134000FFCFFF020303E202F702FB02E7020603FC
:101350000C03100316031A031E0324032803E702D9
:061360002C0332033603EA
:101366003D033D033D033D033D033D033D033D0377
:101376000000000026029401BD017302EE01CC01BB
:10138600E00127292B2D2F31333516181A1C1E2064
:10139600222426282A2C2E303234202020200020F9
:1013A600202020253034782025632025303278000F
:0413B6000D0A00001C
:00000001FF
