:100000000C9435010C9466010C9466010C94660105
:100010000C9466010C9466010C9466010C946601C4
:100020000C9466010C9466010C9466010C946601B4
:100030000C9466010C9466010C9466010C946601A4
:100040000C9466010C9466010C9466010C94660194
:100050000C9466010C9466010C9466010C94AA023F
:100060000C9466010C941C030C94F2020C9466012F
:100070000C9466010C9466010C9466010C94660164
:100080000C9466010C9466010C9466010C94660154
:100090000C9466010C9466010C9466010C94660144
:1000A0000C9466010C9466010C9466010C94660134
:1000B0000C9466010C9466010C9466010C94660124
:1000C0000C9466010C9466010C9466010C94660114
:1000D0000C9466010C9466010C9466010C94660104
:1000E0000C9466010C948F040C94B4010C94C2011E
:1000F0000C94B9040C9453040C94B5040C94B104FE
:100100000C9447020C947A040C9495040C94A0016E
:100110000C944E040C94FA010C9468010C9499040C
:100120000C9482040C948B040C94A7040C94850406
:100130000C947E040C9476040C94AB040C94910102
:100140000C94A3040C949D040000220025002800B8
:100150002B002E00310034000201000005010801CF
:100160000B0100002100240027002A002D00300090
:10017000330001010000040107010A010000200012
:100180002300260029002C002F003200000100006F
:10019000030106010901050505050705080808080A
:1001A000020202020A0A080804040404010101010F
:1001B000010101010303030303030303040707070A
:1001C0000C0C0C0C0C0C0C0C0202020206060606AF
:1001D000060606060B0B0B0B0B0B0B0B010210207C
:1001E000200808102040102040800201020108046D
:1001F0000201010204081020408080402010080401
:100200000201800402018040201008040201080459
:10021000020101020408102040800102040810209D
:10022000408000000A0B02090C0D0E0807030401B0
:1002300000000000000000000000000000000000BE
:10024000000000000000000000000000000012118B
:10025000100000000000000000000000000000008E
:100260000000000000000000B90411241FBECFEF01
:10027000D1E2DEBFCDBF00E00CBF12E0A0E0B2E0F3
:10028000EAE0FAE000E00BBF02C007900D92A63250
:10029000B107D9F722E0A6E2B2E001C01D92AC3C62
:1002A000B207E1F711E0C5E3D1E000E006C0219715
:1002B0000109802FFE010E94E904C433D10780E0C8
:1002C0000807A9F70E944D030C94E6040C94000063
:1002D000CF92DF92EF92FF920F931F93CF93DF9312
:1002E0007C016A0110E000E00C151D0581F0EB01B6
:1002F000D701ED91FC910190F081E02D6991C7014A
:100300001995892B21F00F5F1F4FBE01EDCFC8015A
:10031000DF91CF911F910F91FF90EF90DF90CF90E1
:100320000895FC01538D448D252F30E0842F90E0FB
:10033000821B930B541710F0CF96089501970895E0
:10034000FC01918D828D981761F0A28DAE0FBF2FA9
:10035000B11D5D968C91928D9F5F9F73928F90E0FF
:1003600008958FEF9FEF0895FC01918D828D98176E
:1003700031F0828DE80FF11D858D90E008958FEFAB
:100380009FEF0895FC01918D228D892F90E0805C74
:100390009F4F821B91098F73992708958FE292E0F6
:1003A0000E94C20121E0892B09F420E0822F0895E8
:1003B000FC01A48DA80FB92FB11DA35ABF4F2C91DA
:1003C000848D90E001968F739927848FA689B789D1
:1003D0002C93A089B1898C91837080648C93938DC8
:1003E000848D981306C00288F389E02D80818F7D6B
:1003F00080830895EF92FF920F931F93CF93DF9323
:10040000EC01F62E81E0888F9B8D8C8D98131AC09D
:10041000E889F989808185FF15C09FB7F894EE8936
:10042000FF896083E889F989808183708064808393
:100430009FBF81E090E0DF91CF911F910F91FF90DE
:10044000EF9008950B8D10E00F5F1F4F0F73112772
:10045000E02E8C8D8E110CC00FB607FCFACFE88908
:10046000F989808185FFF5CFCE010E94D801F1CFB7
:10047000EB8DEC0FFD2FF11DE35AFF4FF0829FB77C
:10048000F8940B8FEA89FB8980818062D0CFCF936B
:10049000DF93EC01888D8823B9F0AA89BB89E889AC
:1004A000F9898C9185FD03C0808186FD0DC00FB652
:1004B00007FCF7CF8C9185FFF2CF808185FFEDCFD0
:1004C000CE010E94D801E9CFDF91CF91089580E05D
:1004D00090E0892B29F00E94CE0181110E9400003A
:1004E00080E090E0892B49F080E090E0892B29F0B2
:1004F0000E94000081110E94000080E090E0892BA2
:1005000049F080E090E0892B29F00E9400008111E1
:100510000E94000080E090E0892B49F080E090E0AC
:10052000892B29F00E94000081110C94000008958D
:10053000009769F0FC0101900020E9F73197AF01C5
:10054000481B590BBC018FE292E00C94680190E0CB
:1005500080E008951F921FB61F9211242F933F939E
:100560008F939F93AF93BF9380912B0290912C0216
:10057000A0912D02B0912E0230912A0223E0230F88
:100580002D3750F50196A11DB11D20932A028093AD
:100590002B0290932C02A0932D02B0932E028091F7
:1005A000260290912702A0912802B091290201967B
:1005B000A11DB11D8093260290932702A0932802CB
:1005C000B0932902BF91AF919F918F913F912F914D
:1005D0001F901FBE1F90189526E8230F0296A11D9D
:1005E000B11DD3CF1F920F920FB60F9211240BB6ED
:1005F0000F922F933F934F935F936F937F938F93BC
:100600009F93AF93BF93EF93FF938FE292E00E948B
:10061000D801FF91EF91BF91AF919F918F917F9101
:100620006F915F914F913F912F910F900BBE0F9063
:100630000FBE0F901F9018952F932FB72F932BB7A6
:100640002F938F939F93EF93FF93E0913F02F0914D
:1006500040028081E0914502F091460282FD1BC07C
:100660009081809148028F5F8F7320914902821799
:1006700041F0E0914802F0E0E15DFD4F958F8093FD
:100680004802FF91EF919F918F912F912BBF2F9156
:100690002FBF2F9118958081F4CFCDB7DEB7A197EA
:1006A0000FB6F894DEBF0FBECDBF789484B58260DC
:1006B00084BD84B5816084BD85B5826085BD85B506
:1006C000816085BD80916E00816080936E00109284
:1006D00081008091810082608093810080918100FF
:1006E0008160809381008091800081608093800090
:1006F0008091B10084608093B1008091B0008160EE
:100700008093B000809191008260809391008091ED
:10071000910081608093910080919000816080932E
:1007200090008091A10082608093A1008091A1003F
:1007300081608093A1008091A00081608093A000DF
:10074000809121018260809321018091210181604B
:10075000809321018091200181608093200180910C
:100760007A00846080937A0080917A00826080931E
:100770007A0080917A00816080937A0080917A007B
:10078000806880937A001092C10002E212E0A2E138
:10079000B2E08D9190E0FC01E452FE4F24918A5624
:1007A0009E4FFC0184918823C9F090E0880F991F27
:1007B000FC01EE59FE4F45915491FC01E85BFE4F60
:1007C000659174919FB7F894FA01808120958223F6
:1007D0008083FB018081822380839FBF0A171B07D0
:1007E000C1F6E0913F02F091400282E08083E09107
:1007F0003F02F09140021082E0913B02F0913C02F6
:100800001082E0913D02F0913E0280E180831092DF
:100810004702E0914302F091440286E08083E09138
:100820004102F0914202808180618083E091410227
:10083000F0914202808188608083E0914102F091D2
:100840004202808180688083E0914102F0914202FF
:1008500080818F7D808392E1E92E92E0F92EF7016D
:1008600021917F0130E0F901EE5DFD4F8491F901A6
:10087000E452FE4F94912A563E4FF90124912223CF
:10088000F1F0882381F08150823168F4E82FF0E0A4
:100890008827ED50FB4F8F4F0C94E9048091800026
:1008A0008F7780938000E22FF0E0EE0FFF1FE45877
:1008B000FE4FA591B491EC919E2381E009F480E074
:1008C00019A2805D88A3CE0180960E9498020E1521
:1008D0001F0509F0C4CF42E050E062E272E08FE20F
:1008E00092E00E9468010E946702B5CF809180006B
:1008F0008F7DD7CF80918000877FD3CF84B58F77CE
:1009000084BDD1CF84B58F7DFBCF8091B0008F7730
:100910008093B000C8CF8091B0008F7DF9CF8091D7
:1009200090008F7780939000BECF809190008F7D54
:10093000F9CF80919000877FF5CF8091A0008F77CD
:100940008093A000B0CF8091A0008F7DF9CF8091DF
:10095000A000877FF5CF809120018F7780932001C1
:10096000A2CF809120018F7DF9CF80912001877FD8
:10097000F5CFEFE2F2E01382128288EE93E0A0E07E
:10098000B0E084839583A683B78384E092E091836B
:10099000808385EC90E09587848784EC90E097874E
:1009A000868780EC90E0918B808B81EC90E0938B3C
:1009B000828B82EC90E0958B848B86EC90E0978B19
:1009C000868B118E128E138E148E0895F8940C94CB
:1009D000F104EE0FFF1F881F8BBF0790F691E02DEB
:1009E0001994F894FFCF7E0482044E0476047A04AE
:1009F000530485048B048F04950499049D04A30477
:0A0A0000A7045304AB04B104B504CD
:100A0A0000000000FA01680191014702C201A00139
:100A1A00B40116181A1C1E20222426282A2C2E302D
:060A2A0032340D0A000049
:00000001FF
